{
  "_format": "hh-sol-artifact-1",
  "contractName": "ZuruToken",
  "sourceName": "contracts/ZuruToken.sol",
  "abi": [
    {
      "inputs": [
        {
          "internalType": "uint256",
          "name": "initialSupply",
          "type": "uint256"
        }
      ],
      "stateMutability": "nonpayable",
      "type": "constructor"
    },
    {
      "inputs": [
        {
          "internalType": "uint256",
          "name": "retryAt",
          "type": "uint256"
        }
      ],
      "name": "CooldownNotElapsed",
      "type": "error"
    },
    {
      "inputs": [
        {
          "internalType": "address",
          "name": "spender",
          "type": "address"
        },
        {
          "internalType": "uint256",
          "name": "allowance",
          "type": "uint256"
        },
        {
          "internalType": "uint256",
          "name": "needed",
          "type": "uint256"
        }
      ],
      "name": "ERC20InsufficientAllowance",
      "type": "error"
    },
    {
      "inputs": [
        {
          "internalType": "address",
          "name": "sender",
          "type": "address"
        },
        {
          "internalType": "uint256",
          "name": "balance",
          "type": "uint256"
        },
        {
          "internalType": "uint256",
          "name": "needed",
          "type": "uint256"
        }
      ],
      "name": "ERC20InsufficientBalance",
      "type": "error"
    },
    {
      "inputs": [
        {
          "internalType": "address",
          "name": "approver",
          "type": "address"
        }
      ],
      "name": "ERC20InvalidApprover",
      "type": "error"
    },
    {
      "inputs": [
        {
          "internalType": "address",
          "name": "receiver",
          "type": "address"
        }
      ],
      "name": "ERC20InvalidReceiver",
      "type": "error"
    },
    {
      "inputs": [
        {
          "internalType": "address",
          "name": "sender",
          "type": "address"
        }
      ],
      "name": "ERC20InvalidSender",
      "type": "error"
    },
    {
      "inputs": [
        {
          "internalType": "address",
          "name": "spender",
          "type": "address"
        }
      ],
      "name": "ERC20InvalidSpender",
      "type": "error"
    },
    {
      "inputs": [
        {
          "internalType": "uint256",
          "name": "requested",
          "type": "uint256"
        },
        {
          "internalType": "uint256",
          "name": "available",
          "type": "uint256"
        }
      ],
      "name": "ExceedsMaxSupply",
      "type": "error"
    },
    {
      "inputs": [],
      "name": "InvalidRecipient",
      "type": "error"
    },
    {
      "inputs": [
        {
          "internalType": "address",
          "name": "owner",
          "type": "address"
        }
      ],
      "name": "OwnableInvalidOwner",
      "type": "error"
    },
    {
      "inputs": [
        {
          "internalType": "address",
          "name": "account",
          "type": "address"
        }
      ],
      "name": "OwnableUnauthorizedAccount",
      "type": "error"
    },
    {
      "inputs": [],
      "name": "ZeroAmount",
      "type": "error"
    },
    {
      "anonymous": false,
      "inputs": [
        {
          "indexed": true,
          "internalType": "address",
          "name": "owner",
          "type": "address"
        },
        {
          "indexed": true,
          "internalType": "address",
          "name": "spender",
          "type": "address"
        },
        {
          "indexed": false,
          "internalType": "uint256",
          "name": "value",
          "type": "uint256"
        }
      ],
      "name": "Approval",
      "type": "event"
    },
    {
      "anonymous": false,
      "inputs": [
        {
          "indexed": true,
          "internalType": "address",
          "name": "previousOwner",
          "type": "address"
        },
        {
          "indexed": true,
          "internalType": "address",
          "name": "newOwner",
          "type": "address"
        }
      ],
      "name": "OwnershipTransferred",
      "type": "event"
    },
    {
      "anonymous": false,
      "inputs": [
        {
          "indexed": true,
          "internalType": "address",
          "name": "claimant",
          "type": "address"
        },
        {
          "indexed": false,
          "internalType": "uint256",
          "name": "amount",
          "type": "uint256"
        },
        {
          "indexed": false,
          "internalType": "uint256",
          "name": "nextClaimAt",
          "type": "uint256"
        }
      ],
      "name": "TokensClaimed",
      "type": "event"
    },
    {
      "anonymous": false,
      "inputs": [
        {
          "indexed": true,
          "internalType": "address",
          "name": "to",
          "type": "address"
        },
        {
          "indexed": false,
          "internalType": "uint256",
          "name": "amount",
          "type": "uint256"
        },
        {
          "indexed": false,
          "internalType": "uint256",
          "name": "newTotalSupply",
          "type": "uint256"
        }
      ],
      "name": "TokensMinted",
      "type": "event"
    },
    {
      "anonymous": false,
      "inputs": [
        {
          "indexed": true,
          "internalType": "address",
          "name": "from",
          "type": "address"
        },
        {
          "indexed": true,
          "internalType": "address",
          "name": "to",
          "type": "address"
        },
        {
          "indexed": false,
          "internalType": "uint256",
          "name": "value",
          "type": "uint256"
        }
      ],
      "name": "Transfer",
      "type": "event"
    },
    {
      "inputs": [],
      "name": "CLAIM_AMOUNT",
      "outputs": [
        {
          "internalType": "uint256",
          "name": "",
          "type": "uint256"
        }
      ],
      "stateMutability": "view",
      "type": "function"
    },
    {
      "inputs": [],
      "name": "COOLDOWN",
      "outputs": [
        {
          "internalType": "uint256",
          "name": "",
          "type": "uint256"
        }
      ],
      "stateMutability": "view",
      "type": "function"
    },
    {
      "inputs": [],
      "name": "MAX_SUPPLY",
      "outputs": [
        {
          "internalType": "uint256",
          "name": "",
          "type": "uint256"
        }
      ],
      "stateMutability": "view",
      "type": "function"
    },
    {
      "inputs": [
        {
          "internalType": "address",
          "name": "owner",
          "type": "address"
        },
        {
          "internalType": "address",
          "name": "spender",
          "type": "address"
        }
      ],
      "name": "allowance",
      "outputs": [
        {
          "internalType": "uint256",
          "name": "",
          "type": "uint256"
        }
      ],
      "stateMutability": "view",
      "type": "function"
    },
    {
      "inputs": [
        {
          "internalType": "address",
          "name": "spender",
          "type": "address"
        },
        {
          "internalType": "uint256",
          "name": "value",
          "type": "uint256"
        }
      ],
      "name": "approve",
      "outputs": [
        {
          "internalType": "bool",
          "name": "",
          "type": "bool"
        }
      ],
      "stateMutability": "nonpayable",
      "type": "function"
    },
    {
      "inputs": [
        {
          "internalType": "address",
          "name": "account",
          "type": "address"
        }
      ],
      "name": "balanceOf",
      "outputs": [
        {
          "internalType": "uint256",
          "name": "",
          "type": "uint256"
        }
      ],
      "stateMutability": "view",
      "type": "function"
    },
    {
      "inputs": [],
      "name": "decimals",
      "outputs": [
        {
          "internalType": "uint8",
          "name": "",
          "type": "uint8"
        }
      ],
      "stateMutability": "view",
      "type": "function"
    },
    {
      "inputs": [
        {
          "internalType": "address",
          "name": "",
          "type": "address"
        }
      ],
      "name": "lastClaimed",
      "outputs": [
        {
          "internalType": "uint256",
          "name": "",
          "type": "uint256"
        }
      ],
      "stateMutability": "view",
      "type": "function"
    },
    {
      "inputs": [
        {
          "internalType": "address",
          "name": "to",
          "type": "address"
        },
        {
          "internalType": "uint256",
          "name": "amount",
          "type": "uint256"
        }
      ],
      "name": "mint",
      "outputs": [],
      "stateMutability": "nonpayable",
      "type": "function"
    },
    {
      "inputs": [],
      "name": "name",
      "outputs": [
        {
          "internalType": "string",
          "name": "",
          "type": "string"
        }
      ],
      "stateMutability": "view",
      "type": "function"
    },
    {
      "inputs": [],
      "name": "owner",
      "outputs": [
        {
          "internalType": "address",
          "name": "",
          "type": "address"
        }
      ],
      "stateMutability": "view",
      "type": "function"
    },
    {
      "inputs": [],
      "name": "renounceOwnership",
      "outputs": [],
      "stateMutability": "nonpayable",
      "type": "function"
    },
    {
      "inputs": [],
      "name": "requestToken",
      "outputs": [],
      "stateMutability": "nonpayable",
      "type": "function"
    },
    {
      "inputs": [],
      "name": "symbol",
      "outputs": [
        {
          "internalType": "string",
          "name": "",
          "type": "string"
        }
      ],
      "stateMutability": "view",
      "type": "function"
    },
    {
      "inputs": [],
      "name": "totalSupply",
      "outputs": [
        {
          "internalType": "uint256",
          "name": "",
          "type": "uint256"
        }
      ],
      "stateMutability": "view",
      "type": "function"
    },
    {
      "inputs": [
        {
          "internalType": "address",
          "name": "to",
          "type": "address"
        },
        {
          "internalType": "uint256",
          "name": "value",
          "type": "uint256"
        }
      ],
      "name": "transfer",
      "outputs": [
        {
          "internalType": "bool",
          "name": "",
          "type": "bool"
        }
      ],
      "stateMutability": "nonpayable",
      "type": "function"
    },
    {
      "inputs": [
        {
          "internalType": "address",
          "name": "from",
          "type": "address"
        },
        {
          "internalType": "address",
          "name": "to",
          "type": "address"
        },
        {
          "internalType": "uint256",
          "name": "value",
          "type": "uint256"
        }
      ],
      "name": "transferFrom",
      "outputs": [
        {
          "internalType": "bool",
          "name": "",
          "type": "bool"
        }
      ],
      "stateMutability": "nonpayable",
      "type": "function"
    },
    {
      "inputs": [
        {
          "internalType": "address",
          "name": "newOwner",
          "type": "address"
        }
      ],
      "name": "transferOwnership",
      "outputs": [],
      "stateMutability": "nonpayable",
      "type": "function"
    }
  ],
  "bytecode": "0x60806040523480156200001157600080fd5b50604051620020f9380380620020f9833981810160405281019062000037919062000598565b336040518060400160405280600981526020017f5a757275546f6b656e00000000000000000000000000000000000000000000008152506040518060400160405280600281526020017f5a4b0000000000000000000000000000000000000000000000000000000000008152508160039081620000b591906200083a565b508060049081620000c791906200083a565b505050600073ffffffffffffffffffffffffffffffffffffffff168173ffffffffffffffffffffffffffffffffffffffff16036200013f5760006040517f1e4fbdf700000000000000000000000000000000000000000000000000000000815260040162000136919062000966565b60405180910390fd5b6200015081620001d560201b60201c565b506000811115620001ce576a084595161401484a000000811115620001bb57806a084595161401484a0000006040517fadc3cee5000000000000000000000000000000000000000000000000000000008152600401620001b292919062000994565b60405180910390fd5b620001cd33826200029b60201b60201c565b5b5062000a85565b6000600560009054906101000a900473ffffffffffffffffffffffffffffffffffffffff16905081600560006101000a81548173ffffffffffffffffffffffffffffffffffffffff021916908373ffffffffffffffffffffffffffffffffffffffff1602179055508173ffffffffffffffffffffffffffffffffffffffff168173ffffffffffffffffffffffffffffffffffffffff167f8be0079c531659141344cd1fd0a4f28419497f9722a3daafe3b4186f6b6457e060405160405180910390a35050565b600073ffffffffffffffffffffffffffffffffffffffff168273ffffffffffffffffffffffffffffffffffffffff1603620003105760006040517fec442f0500000000000000000000000000000000000000000000000000000000815260040162000307919062000966565b60405180910390fd5b62000324600083836200032860201b60201c565b5050565b600073ffffffffffffffffffffffffffffffffffffffff168373ffffffffffffffffffffffffffffffffffffffff16036200037e578060026000828254620003719190620009f0565b9250508190555062000454565b60008060008573ffffffffffffffffffffffffffffffffffffffff1673ffffffffffffffffffffffffffffffffffffffff168152602001908152602001600020549050818110156200040d578381836040517fe450d38c000000000000000000000000000000000000000000000000000000008152600401620004049392919062000a2b565b60405180910390fd5b8181036000808673ffffffffffffffffffffffffffffffffffffffff1673ffffffffffffffffffffffffffffffffffffffff16815260200190815260200160002081905550505b600073ffffffffffffffffffffffffffffffffffffffff168273ffffffffffffffffffffffffffffffffffffffff16036200049f5780600260008282540392505081905550620004ec565b806000808473ffffffffffffffffffffffffffffffffffffffff1673ffffffffffffffffffffffffffffffffffffffff168152602001908152602001600020600082825401925050819055505b8173ffffffffffffffffffffffffffffffffffffffff168373ffffffffffffffffffffffffffffffffffffffff167fddf252ad1be2c89b69c2b068fc378daa952ba7f163c4a11628f55a4df523b3ef836040516200054b919062000a68565b60405180910390a3505050565b600080fd5b6000819050919050565b62000572816200055d565b81146200057e57600080fd5b50565b600081519050620005928162000567565b92915050565b600060208284031215620005b157620005b062000558565b5b6000620005c18482850162000581565b91505092915050565b600081519050919050565b7f4e487b7100000000000000000000000000000000000000000000000000000000600052604160045260246000fd5b7f4e487b7100000000000000000000000000000000000000000000000000000000600052602260045260246000fd5b600060028204905060018216806200064c57607f821691505b60208210810362000662576200066162000604565b5b50919050565b60008190508160005260206000209050919050565b60006020601f8301049050919050565b600082821b905092915050565b600060088302620006cc7fffffffffffffffffffffffffffffffffffffffffffffffffffffffffffffffff826200068d565b620006d886836200068d565b95508019841693508086168417925050509392505050565b6000819050919050565b60006200071b620007156200070f846200055d565b620006f0565b6200055d565b9050919050565b6000819050919050565b6200073783620006fa565b6200074f620007468262000722565b8484546200069a565b825550505050565b600090565b6200076662000757565b620007738184846200072c565b505050565b5b818110156200079b576200078f6000826200075c565b60018101905062000779565b5050565b601f821115620007ea57620007b48162000668565b620007bf846200067d565b81016020851015620007cf578190505b620007e7620007de856200067d565b83018262000778565b50505b505050565b600082821c905092915050565b60006200080f60001984600802620007ef565b1980831691505092915050565b60006200082a8383620007fc565b9150826002028217905092915050565b6200084582620005ca565b67ffffffffffffffff811115620008615762000860620005d5565b5b6200086d825462000633565b6200087a8282856200079f565b600060209050601f831160018114620008b257600084156200089d578287015190505b620008a985826200081c565b86555062000919565b601f198416620008c28662000668565b60005b82811015620008ec57848901518255600182019150602085019450602081019050620008c5565b868310156200090c578489015162000908601f891682620007fc565b8355505b6001600288020188555050505b505050505050565b600073ffffffffffffffffffffffffffffffffffffffff82169050919050565b60006200094e8262000921565b9050919050565b620009608162000941565b82525050565b60006020820190506200097d600083018462000955565b92915050565b6200098e816200055d565b82525050565b6000604082019050620009ab600083018562000983565b620009ba602083018462000983565b9392505050565b7f4e487b7100000000000000000000000000000000000000000000000000000000600052601160045260246000fd5b6000620009fd826200055d565b915062000a0a836200055d565b925082820190508082111562000a255762000a24620009c1565b5b92915050565b600060608201905062000a42600083018662000955565b62000a51602083018562000983565b62000a60604083018462000983565b949350505050565b600060208201905062000a7f600083018462000983565b92915050565b6116648062000a956000396000f3fe608060405234801561001057600080fd5b50600436106101165760003560e01c80634d7ec628116100a257806395d89b411161007157806395d89b41146102bf578063a2724a4d146102dd578063a9059cbb146102fb578063dd62ed3e1461032b578063f2fde38b1461035b57610116565b80634d7ec6281461025d57806370a0823114610267578063715018a6146102975780638da5cb5b146102a157610116565b806323b872dd116100e957806323b872dd146101b7578063270ef385146101e7578063313ce5671461020557806332cb6b0c1461022357806340c10f191461024157610116565b8063013eba921461011b57806306fdde031461014b578063095ea7b31461016957806318160ddd14610199575b600080fd5b6101356004803603810190610130919061122e565b610377565b6040516101429190611274565b60405180910390f35b61015361038f565b604051610160919061131f565b60405180910390f35b610183600480360381019061017e919061136d565b610421565b60405161019091906113c8565b60405180910390f35b6101a1610444565b6040516101ae9190611274565b60405180910390f35b6101d160048036038101906101cc91906113e3565b61044e565b6040516101de91906113c8565b60405180910390f35b6101ef61047d565b6040516101fc9190611274565b60405180910390f35b61020d61048a565b60405161021a9190611452565b60405180910390f35b61022b610493565b6040516102389190611274565b60405180910390f35b61025b6004803603810190610256919061136d565b6104a2565b005b610265610619565b005b610281600480360381019061027c919061122e565b61080e565b60405161028e9190611274565b60405180910390f35b61029f610856565b005b6102a961086a565b6040516102b6919061147c565b60405180910390f35b6102c7610894565b6040516102d4919061131f565b60405180910390f35b6102e5610926565b6040516102f29190611274565b60405180910390f35b6103156004803603810190610310919061136d565b61092d565b60405161032291906113c8565b60405180910390f35b61034560048036038101906103409190611497565b610950565b6040516103529190611274565b60405180910390f35b6103756004803603810190610370919061122e565b6109d7565b005b60066020528060005260406000206000915090505481565b60606003805461039e90611506565b80601f01602080910402602001604051908101604052809291908181526020018280546103ca90611506565b80156104175780601f106103ec57610100808354040283529160200191610417565b820191906000526020600020905b8154815290600101906020018083116103fa57829003601f168201915b5050505050905090565b60008061042c610a5d565b9050610439818585610a65565b600191505092915050565b6000600254905090565b600080610459610a5d565b9050610466858285610a77565b610471858585610b0c565b60019150509392505050565b68056bc75e2d6310000081565b60006012905090565b6a084595161401484a00000081565b6104aa610c00565b600073ffffffffffffffffffffffffffffffffffffffff168273ffffffffffffffffffffffffffffffffffffffff1603610510576040517f9c8d2cd200000000000000000000000000000000000000000000000000000000815260040160405180910390fd5b6000810361054a576040517f1f2a200500000000000000000000000000000000000000000000000000000000815260040160405180910390fd5b6000610554610444565b6a084595161401484a00000061056a9190611566565b9050808211156105b35781816040517fadc3cee50000000000000000000000000000000000000000000000000000000081526004016105aa92919061159a565b60405180910390fd5b6105bd8383610c87565b8273ffffffffffffffffffffffffffffffffffffffff167f2e8ac5177a616f2aec08c3048f5021e4e9743ece034e8d83ba5caf76688bb475836105fe610444565b60405161060c92919061159a565b60405180910390a2505050565b60003390506000600660008373ffffffffffffffffffffffffffffffffffffffff1673ffffffffffffffffffffffffffffffffffffffff168152602001908152602001600020549050600081141580156106805750620151808161067d91906115c3565b42105b156106d057620151808161069491906115c3565b6040517fe3c9f0550000000000000000000000000000000000000000000000000000000081526004016106c79190611274565b60405180910390fd5b60006106da610444565b6a084595161401484a0000006106f09190611566565b905068056bc75e2d6310000081101561074b5768056bc75e2d63100000816040517fadc3cee500000000000000000000000000000000000000000000000000000000815260040161074292919061159a565b60405180910390fd5b42600660008573ffffffffffffffffffffffffffffffffffffffff1673ffffffffffffffffffffffffffffffffffffffff168152602001908152602001600020819055506107a23368056bc75e2d63100000610c87565b8273ffffffffffffffffffffffffffffffffffffffff167f9923b4306c6c030f2bdfbf156517d5983b87e15b96176da122cd4f2effa4ba7b68056bc75e2d6310000062015180426107f391906115c3565b60405161080192919061159a565b60405180910390a2505050565b60008060008373ffffffffffffffffffffffffffffffffffffffff1673ffffffffffffffffffffffffffffffffffffffff168152602001908152602001600020549050919050565b61085e610c00565b6108686000610d09565b565b6000600560009054906101000a900473ffffffffffffffffffffffffffffffffffffffff16905090565b6060600480546108a390611506565b80601f01602080910402602001604051908101604052809291908181526020018280546108cf90611506565b801561091c5780601f106108f15761010080835404028352916020019161091c565b820191906000526020600020905b8154815290600101906020018083116108ff57829003601f168201915b5050505050905090565b6201518081565b600080610938610a5d565b9050610945818585610b0c565b600191505092915050565b6000600160008473ffffffffffffffffffffffffffffffffffffffff1673ffffffffffffffffffffffffffffffffffffffff16815260200190815260200160002060008373ffffffffffffffffffffffffffffffffffffffff1673ffffffffffffffffffffffffffffffffffffffff16815260200190815260200160002054905092915050565b6109df610c00565b600073ffffffffffffffffffffffffffffffffffffffff168173ffffffffffffffffffffffffffffffffffffffff1603610a515760006040517f1e4fbdf7000000000000000000000000000000000000000000000000000000008152600401610a48919061147c565b60405180910390fd5b610a5a81610d09565b50565b600033905090565b610a728383836001610dcf565b505050565b6000610a838484610950565b90507fffffffffffffffffffffffffffffffffffffffffffffffffffffffffffffffff811015610b065781811015610af6578281836040517ffb8f41b2000000000000000000000000000000000000000000000000000000008152600401610aed939291906115f7565b60405180910390fd5b610b0584848484036000610dcf565b5b50505050565b600073ffffffffffffffffffffffffffffffffffffffff168373ffffffffffffffffffffffffffffffffffffffff1603610b7e5760006040517f96c6fd1e000000000000000000000000000000000000000000000000000000008152600401610b75919061147c565b60405180910390fd5b600073ffffffffffffffffffffffffffffffffffffffff168273ffffffffffffffffffffffffffffffffffffffff1603610bf05760006040517fec442f05000000000000000000000000000000000000000000000000000000008152600401610be7919061147c565b60405180910390fd5b610bfb838383610fa6565b505050565b610c08610a5d565b73ffffffffffffffffffffffffffffffffffffffff16610c2661086a565b73ffffffffffffffffffffffffffffffffffffffff1614610c8557610c49610a5d565b6040517f118cdaa7000000000000000000000000000000000000000000000000000000008152600401610c7c919061147c565b60405180910390fd5b565b600073ffffffffffffffffffffffffffffffffffffffff168273ffffffffffffffffffffffffffffffffffffffff1603610cf95760006040517fec442f05000000000000000000000000000000000000000000000000000000008152600401610cf0919061147c565b60405180910390fd5b610d0560008383610fa6565b5050565b6000600560009054906101000a900473ffffffffffffffffffffffffffffffffffffffff16905081600560006101000a81548173ffffffffffffffffffffffffffffffffffffffff021916908373ffffffffffffffffffffffffffffffffffffffff1602179055508173ffffffffffffffffffffffffffffffffffffffff168173ffffffffffffffffffffffffffffffffffffffff167f8be0079c531659141344cd1fd0a4f28419497f9722a3daafe3b4186f6b6457e060405160405180910390a35050565b600073ffffffffffffffffffffffffffffffffffffffff168473ffffffffffffffffffffffffffffffffffffffff1603610e415760006040517fe602df05000000000000000000000000000000000000000000000000000000008152600401610e38919061147c565b60405180910390fd5b600073ffffffffffffffffffffffffffffffffffffffff168373ffffffffffffffffffffffffffffffffffffffff1603610eb35760006040517f94280d62000000000000000000000000000000000000000000000000000000008152600401610eaa919061147c565b60405180910390fd5b81600160008673ffffffffffffffffffffffffffffffffffffffff1673ffffffffffffffffffffffffffffffffffffffff16815260200190815260200160002060008573ffffffffffffffffffffffffffffffffffffffff1673ffffffffffffffffffffffffffffffffffffffff168152602001908152602001600020819055508015610fa0578273ffffffffffffffffffffffffffffffffffffffff168473ffffffffffffffffffffffffffffffffffffffff167f8c5be1e5ebec7d5bd14f71427d1e84f3dd0314c0f7b2291e5b200ac8c7c3b92584604051610f979190611274565b60405180910390a35b50505050565b600073ffffffffffffffffffffffffffffffffffffffff168373ffffffffffffffffffffffffffffffffffffffff1603610ff8578060026000828254610fec91906115c3565b925050819055506110cb565b60008060008573ffffffffffffffffffffffffffffffffffffffff1673ffffffffffffffffffffffffffffffffffffffff16815260200190815260200160002054905081811015611084578381836040517fe450d38c00000000000000000000000000000000000000000000000000000000815260040161107b939291906115f7565b60405180910390fd5b8181036000808673ffffffffffffffffffffffffffffffffffffffff1673ffffffffffffffffffffffffffffffffffffffff16815260200190815260200160002081905550505b600073ffffffffffffffffffffffffffffffffffffffff168273ffffffffffffffffffffffffffffffffffffffff16036111145780600260008282540392505081905550611161565b806000808473ffffffffffffffffffffffffffffffffffffffff1673ffffffffffffffffffffffffffffffffffffffff168152602001908152602001600020600082825401925050819055505b8173ffffffffffffffffffffffffffffffffffffffff168373ffffffffffffffffffffffffffffffffffffffff167fddf252ad1be2c89b69c2b068fc378daa952ba7f163c4a11628f55a4df523b3ef836040516111be9190611274565b60405180910390a3505050565b600080fd5b600073ffffffffffffffffffffffffffffffffffffffff82169050919050565b60006111fb826111d0565b9050919050565b61120b816111f0565b811461121657600080fd5b50565b60008135905061122881611202565b92915050565b600060208284031215611244576112436111cb565b5b600061125284828501611219565b91505092915050565b6000819050919050565b61126e8161125b565b82525050565b60006020820190506112896000830184611265565b92915050565b600081519050919050565b600082825260208201905092915050565b60005b838110156112c95780820151818401526020810190506112ae565b60008484015250505050565b6000601f19601f8301169050919050565b60006112f18261128f565b6112fb818561129a565b935061130b8185602086016112ab565b611314816112d5565b840191505092915050565b6000602082019050818103600083015261133981846112e6565b905092915050565b61134a8161125b565b811461135557600080fd5b50565b60008135905061136781611341565b92915050565b60008060408385031215611384576113836111cb565b5b600061139285828601611219565b92505060206113a385828601611358565b9150509250929050565b60008115159050919050565b6113c2816113ad565b82525050565b60006020820190506113dd60008301846113b9565b92915050565b6000806000606084860312156113fc576113fb6111cb565b5b600061140a86828701611219565b935050602061141b86828701611219565b925050604061142c86828701611358565b9150509250925092565b600060ff82169050919050565b61144c81611436565b82525050565b60006020820190506114676000830184611443565b92915050565b611476816111f0565b82525050565b6000602082019050611491600083018461146d565b92915050565b600080604083850312156114ae576114ad6111cb565b5b60006114bc85828601611219565b92505060206114cd85828601611219565b9150509250929050565b7f4e487b7100000000000000000000000000000000000000000000000000000000600052602260045260246000fd5b6000600282049050600182168061151e57607f821691505b602082108103611531576115306114d7565b5b50919050565b7f4e487b7100000000000000000000000000000000000000000000000000000000600052601160045260246000fd5b60006115718261125b565b915061157c8361125b565b925082820390508181111561159457611593611537565b5b92915050565b60006040820190506115af6000830185611265565b6115bc6020830184611265565b9392505050565b60006115ce8261125b565b91506115d98361125b565b92508282019050808211156115f1576115f0611537565b5b92915050565b600060608201905061160c600083018661146d565b6116196020830185611265565b6116266040830184611265565b94935050505056fea264697066735822122053f4b1e00095898beb51217ab7610f707e480318a621431d79434ffb705bc53f64736f6c63430008180033",
  "linkReferences": {},
  "deployedLinkReferences": {}
}